{
  "_format": "hh-sol-artifact-1",
  "contractName": "fiverNFT",
  "sourceName": "contracts/fiverNFT.sol",
  "abi": [
    {
      "inputs": [],
      "stateMutability": "nonpayable",
      "type": "constructor"
    },
    {
      "anonymous": false,
      "inputs": [
        {
          "indexed": true,
          "internalType": "address",
          "name": "owner",
          "type": "address"
        },
        {
          "indexed": true,
          "internalType": "address",
          "name": "approved",
          "type": "address"
        },
        {
          "indexed": true,
          "internalType": "uint256",
          "name": "tokenId",
          "type": "uint256"
        }
      ],
      "name": "Approval",
      "type": "event"
    },
    {
      "anonymous": false,
      "inputs": [
        {
          "indexed": true,
          "internalType": "address",
          "name": "owner",
          "type": "address"
        },
        {
          "indexed": true,
          "internalType": "address",
          "name": "operator",
          "type": "address"
        },
        {
          "indexed": false,
          "internalType": "bool",
          "name": "approved",
          "type": "bool"
        }
      ],
      "name": "ApprovalForAll",
      "type": "event"
    },
    {
      "anonymous": false,
      "inputs": [
        {
          "indexed": true,
          "internalType": "address",
          "name": "previousOwner",
          "type": "address"
        },
        {
          "indexed": true,
          "internalType": "address",
          "name": "newOwner",
          "type": "address"
        }
      ],
      "name": "OwnershipTransferred",
      "type": "event"
    },
    {
      "anonymous": false,
      "inputs": [
        {
          "indexed": true,
          "internalType": "address",
          "name": "from",
          "type": "address"
        },
        {
          "indexed": true,
          "internalType": "address",
          "name": "to",
          "type": "address"
        },
        {
          "indexed": true,
          "internalType": "uint256",
          "name": "tokenId",
          "type": "uint256"
        }
      ],
      "name": "Transfer",
      "type": "event"
    },
    {
      "stateMutability": "payable",
      "type": "fallback"
    },
    {
      "inputs": [],
      "name": "_paused",
      "outputs": [
        {
          "internalType": "bool",
          "name": "",
          "type": "bool"
        }
      ],
      "stateMutability": "view",
      "type": "function"
    },
    {
      "inputs": [],
      "name": "_price",
      "outputs": [
        {
          "internalType": "uint256",
          "name": "",
          "type": "uint256"
        }
      ],
      "stateMutability": "view",
      "type": "function"
    },
    {
      "inputs": [
        {
          "internalType": "address[]",
          "name": "_address",
          "type": "address[]"
        }
      ],
      "name": "addAddress",
      "outputs": [],
      "stateMutability": "nonpayable",
      "type": "function"
    },
    {
      "inputs": [],
      "name": "addAddressToWhitelist",
      "outputs": [],
      "stateMutability": "nonpayable",
      "type": "function"
    },
    {
      "inputs": [
        {
          "internalType": "address",
          "name": "to",
          "type": "address"
        },
        {
          "internalType": "uint256",
          "name": "tokenId",
          "type": "uint256"
        }
      ],
      "name": "approve",
      "outputs": [],
      "stateMutability": "nonpayable",
      "type": "function"
    },
    {
      "inputs": [
        {
          "internalType": "address",
          "name": "owner",
          "type": "address"
        }
      ],
      "name": "balanceOf",
      "outputs": [
        {
          "internalType": "uint256",
          "name": "",
          "type": "uint256"
        }
      ],
      "stateMutability": "view",
      "type": "function"
    },
    {
      "inputs": [
        {
          "internalType": "uint256",
          "name": "tokenId",
          "type": "uint256"
        }
      ],
      "name": "getApproved",
      "outputs": [
        {
          "internalType": "address",
          "name": "",
          "type": "address"
        }
      ],
      "stateMutability": "view",
      "type": "function"
    },
    {
      "inputs": [
        {
          "internalType": "address",
          "name": "",
          "type": "address"
        }
      ],
      "name": "giveawayWinners",
      "outputs": [
        {
          "internalType": "bool",
          "name": "",
          "type": "bool"
        }
      ],
      "stateMutability": "view",
      "type": "function"
    },
    {
      "inputs": [],
      "name": "giveawayWinnersCount",
      "outputs": [
        {
          "internalType": "uint16",
          "name": "",
          "type": "uint16"
        }
      ],
      "stateMutability": "view",
      "type": "function"
    },
    {
      "inputs": [
        {
          "internalType": "address",
          "name": "owner",
          "type": "address"
        },
        {
          "internalType": "address",
          "name": "operator",
          "type": "address"
        }
      ],
      "name": "isApprovedForAll",
      "outputs": [
        {
          "internalType": "bool",
          "name": "",
          "type": "bool"
        }
      ],
      "stateMutability": "view",
      "type": "function"
    },
    {
      "inputs": [],
      "name": "maxTokenIds",
      "outputs": [
        {
          "internalType": "uint16",
          "name": "",
          "type": "uint16"
        }
      ],
      "stateMutability": "view",
      "type": "function"
    },
    {
      "inputs": [],
      "name": "maxWhitelistedAddresses",
      "outputs": [
        {
          "internalType": "uint8",
          "name": "",
          "type": "uint8"
        }
      ],
      "stateMutability": "view",
      "type": "function"
    },
    {
      "inputs": [],
      "name": "mint",
      "outputs": [],
      "stateMutability": "payable",
      "type": "function"
    },
    {
      "inputs": [
        {
          "internalType": "address[]",
          "name": "addresses",
          "type": "address[]"
        }
      ],
      "name": "mintBundle",
      "outputs": [],
      "stateMutability": "nonpayable",
      "type": "function"
    },
    {
      "inputs": [],
      "name": "name",
      "outputs": [
        {
          "internalType": "string",
          "name": "",
          "type": "string"
        }
      ],
      "stateMutability": "view",
      "type": "function"
    },
    {
      "inputs": [],
      "name": "numAddressesWhitelisted",
      "outputs": [
        {
          "internalType": "uint8",
          "name": "",
          "type": "uint8"
        }
      ],
      "stateMutability": "view",
      "type": "function"
    },
    {
      "inputs": [],
      "name": "owner",
      "outputs": [
        {
          "internalType": "address",
          "name": "",
          "type": "address"
        }
      ],
      "stateMutability": "view",
      "type": "function"
    },
    {
      "inputs": [
        {
          "internalType": "uint256",
          "name": "tokenId",
          "type": "uint256"
        }
      ],
      "name": "ownerOf",
      "outputs": [
        {
          "internalType": "address",
          "name": "",
          "type": "address"
        }
      ],
      "stateMutability": "view",
      "type": "function"
    },
    {
      "inputs": [],
      "name": "renounceOwnership",
      "outputs": [],
      "stateMutability": "nonpayable",
      "type": "function"
    },
    {
      "inputs": [],
      "name": "reveal",
      "outputs": [],
      "stateMutability": "nonpayable",
      "type": "function"
    },
    {
      "inputs": [
        {
          "internalType": "address",
          "name": "from",
          "type": "address"
        },
        {
          "internalType": "address",
          "name": "to",
          "type": "address"
        },
        {
          "internalType": "uint256",
          "name": "tokenId",
          "type": "uint256"
        }
      ],
      "name": "safeTransferFrom",
      "outputs": [],
      "stateMutability": "nonpayable",
      "type": "function"
    },
    {
      "inputs": [
        {
          "internalType": "address",
          "name": "from",
          "type": "address"
        },
        {
          "internalType": "address",
          "name": "to",
          "type": "address"
        },
        {
          "internalType": "uint256",
          "name": "tokenId",
          "type": "uint256"
        },
        {
          "internalType": "bytes",
          "name": "data",
          "type": "bytes"
        }
      ],
      "name": "safeTransferFrom",
      "outputs": [],
      "stateMutability": "nonpayable",
      "type": "function"
    },
    {
      "inputs": [
        {
          "internalType": "address",
          "name": "operator",
          "type": "address"
        },
        {
          "internalType": "bool",
          "name": "approved",
          "type": "bool"
        }
      ],
      "name": "setApprovalForAll",
      "outputs": [],
      "stateMutability": "nonpayable",
      "type": "function"
    },
    {
      "inputs": [
        {
          "internalType": "bool",
          "name": "val",
          "type": "bool"
        }
      ],
      "name": "setPaused",
      "outputs": [],
      "stateMutability": "nonpayable",
      "type": "function"
    },
    {
      "inputs": [
        {
          "internalType": "bytes4",
          "name": "interfaceId",
          "type": "bytes4"
        }
      ],
      "name": "supportsInterface",
      "outputs": [
        {
          "internalType": "bool",
          "name": "",
          "type": "bool"
        }
      ],
      "stateMutability": "view",
      "type": "function"
    },
    {
      "inputs": [],
      "name": "symbol",
      "outputs": [
        {
          "internalType": "string",
          "name": "",
          "type": "string"
        }
      ],
      "stateMutability": "view",
      "type": "function"
    },
    {
      "inputs": [
        {
          "internalType": "uint256",
          "name": "index",
          "type": "uint256"
        }
      ],
      "name": "tokenByIndex",
      "outputs": [
        {
          "internalType": "uint256",
          "name": "",
          "type": "uint256"
        }
      ],
      "stateMutability": "view",
      "type": "function"
    },
    {
      "inputs": [],
      "name": "tokenIds",
      "outputs": [
        {
          "internalType": "uint16",
          "name": "",
          "type": "uint16"
        }
      ],
      "stateMutability": "view",
      "type": "function"
    },
    {
      "inputs": [
        {
          "internalType": "address",
          "name": "owner",
          "type": "address"
        },
        {
          "internalType": "uint256",
          "name": "index",
          "type": "uint256"
        }
      ],
      "name": "tokenOfOwnerByIndex",
      "outputs": [
        {
          "internalType": "uint256",
          "name": "",
          "type": "uint256"
        }
      ],
      "stateMutability": "view",
      "type": "function"
    },
    {
      "inputs": [
        {
          "internalType": "uint256",
          "name": "tokenId",
          "type": "uint256"
        }
      ],
      "name": "tokenURI",
      "outputs": [
        {
          "internalType": "string",
          "name": "",
          "type": "string"
        }
      ],
      "stateMutability": "view",
      "type": "function"
    },
    {
      "inputs": [],
      "name": "totalSupply",
      "outputs": [
        {
          "internalType": "uint256",
          "name": "",
          "type": "uint256"
        }
      ],
      "stateMutability": "view",
      "type": "function"
    },
    {
      "inputs": [
        {
          "internalType": "address",
          "name": "from",
          "type": "address"
        },
        {
          "internalType": "address",
          "name": "to",
          "type": "address"
        },
        {
          "internalType": "uint256",
          "name": "tokenId",
          "type": "uint256"
        }
      ],
      "name": "transferFrom",
      "outputs": [],
      "stateMutability": "nonpayable",
      "type": "function"
    },
    {
      "inputs": [
        {
          "internalType": "address",
          "name": "newOwner",
          "type": "address"
        }
      ],
      "name": "transferOwnership",
      "outputs": [],
      "stateMutability": "nonpayable",
      "type": "function"
    },
    {
      "inputs": [
        {
          "internalType": "address",
          "name": "",
          "type": "address"
        }
      ],
      "name": "whitelisted",
      "outputs": [
        {
          "internalType": "bool",
          "name": "",
          "type": "bool"
        }
      ],
      "stateMutability": "view",
      "type": "function"
    },
    {
      "inputs": [],
      "name": "whitelistedAddressesList",
      "outputs": [
        {
          "internalType": "address[]",
          "name": "",
          "type": "address[]"
        }
      ],
      "stateMutability": "view",
      "type": "function"
    },
    {
      "inputs": [],
      "name": "withdraw",
      "outputs": [],
      "stateMutability": "nonpayable",
      "type": "function"
    },
    {
      "stateMutability": "payable",
      "type": "receive"
    }
  ],
  "bytecode": "0x60806040526040518060600160405280603b815260200162004c38603b9139600b90805190602001906200003592919062000298565b506040518060400160405280600581526020017f2e6a736f6e000000000000000000000000000000000000000000000000000000815250600c90805190602001906200008392919062000298565b506040518060600160405280603b815260200162004c73603b9139600d9080519060200190620000b592919062000298565b506064600e60016101000a81548160ff021916908360ff160217905550612710600e60036101000a81548161ffff021916908361ffff1602179055506000600f553480156200010357600080fd5b506040518060400160405280600881526020017f416c69656e4e46540000000000000000000000000000000000000000000000008152506040518060400160405280600381526020017f414c4e000000000000000000000000000000000000000000000000000000000081525081600090805190602001906200018892919062000298565b508060019080519060200190620001a192919062000298565b505050620001c4620001b8620001ca60201b60201c565b620001d260201b60201c565b620003ad565b600033905090565b6000600a60009054906101000a900473ffffffffffffffffffffffffffffffffffffffff16905081600a60006101000a81548173ffffffffffffffffffffffffffffffffffffffff021916908373ffffffffffffffffffffffffffffffffffffffff1602179055508173ffffffffffffffffffffffffffffffffffffffff168173ffffffffffffffffffffffffffffffffffffffff167f8be0079c531659141344cd1fd0a4f28419497f9722a3daafe3b4186f6b6457e060405160405180910390a35050565b828054620002a69062000377565b90600052602060002090601f016020900481019282620002ca576000855562000316565b82601f10620002e557805160ff191683800117855562000316565b8280016001018555821562000316579182015b8281111562000315578251825591602001919060010190620002f8565b5b50905062000325919062000329565b5090565b5b80821115620003445760008160009055506001016200032a565b5090565b7f4e487b7100000000000000000000000000000000000000000000000000000000600052602260045260246000fd5b600060028204905060018216806200039057607f821691505b60208210811415620003a757620003a662000348565b5b50919050565b61487b80620003bd6000396000f3fe6080604052600436106102135760003560e01c80636352211e11610118578063b3621e1a116100a0578063cea7a2471161006f578063cea7a24714610762578063d936547e1461078d578063e985e9c5146107ca578063f2fde38b14610807578063f64d5faf146108305761021a565b8063b3621e1a14610696578063b7bd49f1146106bf578063b88d4fde146106fc578063c87b56dd146107255761021a565b80638da5cb5b116100e75780638da5cb5b146105e95780638e7314d91461061457806395d89b411461062b578063a22cb46514610656578063a475b5dd1461067f5761021a565b80636352211e1461052d57806370a082311461056a578063714cff56146105a7578063715018a6146105d25761021a565b8063235b6ea11161019b5780633ccfd60b1161016a5780633ccfd60b1461045a5780634011d7cd1461047157806342842e0e1461049c5780634f6ccce7146104c55780635f769621146105025761021a565b8063235b6ea11461039e57806323b872dd146103c95780632f745c59146103f257806331a721881461042f5761021a565b8063095ea7b3116101e2578063095ea7b3146102ec5780631249c58b1461031557806316c38b3c1461031f57806316c61ccc1461034857806318160ddd146103735761021a565b806301ffc9a71461021c57806305c1caf21461025957806306fdde0314610284578063081812fc146102af5761021a565b3661021a57005b005b34801561022857600080fd5b50610243600480360381019061023e9190612ee9565b610859565b6040516102509190612f31565b60405180910390f35b34801561026557600080fd5b5061026e6108d3565b60405161027b9190612f69565b60405180910390f35b34801561029057600080fd5b506102996108e7565b6040516102a6919061301d565b60405180910390f35b3480156102bb57600080fd5b506102d660048036038101906102d19190613075565b610979565b6040516102e391906130e3565b60405180910390f35b3480156102f857600080fd5b50610313600480360381019061030e919061312a565b6109bf565b005b61031d610ad7565b005b34801561032b57600080fd5b5061034660048036038101906103419190613196565b610ce1565b005b34801561035457600080fd5b5061035d610d06565b60405161036a9190612f31565b60405180910390f35b34801561037f57600080fd5b50610388610d19565b60405161039591906131d2565b60405180910390f35b3480156103aa57600080fd5b506103b3610d26565b6040516103c091906131d2565b60405180910390f35b3480156103d557600080fd5b506103f060048036038101906103eb91906131ed565b610d2c565b005b3480156103fe57600080fd5b506104196004803603810190610414919061312a565b610d8c565b60405161042691906131d2565b60405180910390f35b34801561043b57600080fd5b50610444610e31565b604051610451919061325c565b60405180910390f35b34801561046657600080fd5b5061046f610e44565b005b34801561047d57600080fd5b50610486610e94565b604051610493919061325c565b60405180910390f35b3480156104a857600080fd5b506104c360048036038101906104be91906131ed565b610ea7565b005b3480156104d157600080fd5b506104ec60048036038101906104e79190613075565b610ec7565b6040516104f991906131d2565b60405180910390f35b34801561050e57600080fd5b50610517610f38565b6040516105249190612f69565b60405180910390f35b34801561053957600080fd5b50610554600480360381019061054f9190613075565b610f4c565b60405161056191906130e3565b60405180910390f35b34801561057657600080fd5b50610591600480360381019061058c9190613277565b610ffe565b60405161059e91906131d2565b60405180910390f35b3480156105b357600080fd5b506105bc6110b6565b6040516105c99190612f69565b60405180910390f35b3480156105de57600080fd5b506105e76110ca565b005b3480156105f557600080fd5b506105fe6110de565b60405161060b91906130e3565b60405180910390f35b34801561062057600080fd5b50610629611108565b005b34801561063757600080fd5b50610640611336565b60405161064d919061301d565b60405180910390f35b34801561066257600080fd5b5061067d600480360381019061067891906132a4565b6113c8565b005b34801561068b57600080fd5b506106946113de565b005b3480156106a257600080fd5b506106bd60048036038101906106b8919061342c565b611404565b005b3480156106cb57600080fd5b506106e660048036038101906106e19190613277565b611668565b6040516106f39190612f31565b60405180910390f35b34801561070857600080fd5b50610723600480360381019061071e919061352a565b611688565b005b34801561073157600080fd5b5061074c60048036038101906107479190613075565b6116ea565b604051610759919061301d565b60405180910390f35b34801561076e57600080fd5b50610777611775565b604051610784919061366b565b60405180910390f35b34801561079957600080fd5b506107b460048036038101906107af9190613277565b61180b565b6040516107c19190612f31565b60405180910390f35b3480156107d657600080fd5b506107f160048036038101906107ec919061368d565b61182b565b6040516107fe9190612f31565b60405180910390f35b34801561081357600080fd5b5061082e60048036038101906108299190613277565b6118bf565b005b34801561083c57600080fd5b506108576004803603810190610852919061342c565b611943565b005b60007f780e9d63000000000000000000000000000000000000000000000000000000007bffffffffffffffffffffffffffffffffffffffffffffffffffffffff1916827bffffffffffffffffffffffffffffffffffffffffffffffffffffffff191614806108cc57506108cb82611b4c565b5b9050919050565b600e60079054906101000a900461ffff1681565b6060600080546108f6906136fc565b80601f0160208091040260200160405190810160405280929190818152602001828054610922906136fc565b801561096f5780601f106109445761010080835404028352916020019161096f565b820191906000526020600020905b81548152906001019060200180831161095257829003601f168201915b5050505050905090565b600061098482611c2e565b6004600083815260200190815260200160002060009054906101000a900473ffffffffffffffffffffffffffffffffffffffff169050919050565b60006109ca82610f4c565b90508073ffffffffffffffffffffffffffffffffffffffff168373ffffffffffffffffffffffffffffffffffffffff161415610a3b576040517f08c379a0000000000000000000000000000000000000000000000000000000008152600401610a32906137a0565b60405180910390fd5b8073ffffffffffffffffffffffffffffffffffffffff16610a5a611c79565b73ffffffffffffffffffffffffffffffffffffffff161480610a895750610a8881610a83611c79565b61182b565b5b610ac8576040517f08c379a0000000000000000000000000000000000000000000000000000000008152600401610abf90613832565b60405180910390fd5b610ad28383611c81565b505050565b600e60009054906101000a900460ff1615610b27576040517f08c379a0000000000000000000000000000000000000000000000000000000008152600401610b1e9061389e565b60405180910390fd5b600e60039054906101000a900461ffff1661ffff16600e60059054906101000a900461ffff1661ffff1610610b91576040517f08c379a0000000000000000000000000000000000000000000000000000000008152600401610b889061390a565b60405180910390fd5b600f54341015610bd6576040517f08c379a0000000000000000000000000000000000000000000000000000000008152600401610bcd90613976565b60405180910390fd5b6001600e60058282829054906101000a900461ffff160192506101000a81548161ffff021916908361ffff1602179055506000610c116110de565b905060008173ffffffffffffffffffffffffffffffffffffffff1634604051610c39906139c7565b60006040518083038185875af1925050503d8060008114610c76576040519150601f19603f3d011682016040523d82523d6000602084013e610c7b565b606091505b5050905080610cbf576040517f08c379a0000000000000000000000000000000000000000000000000000000008152600401610cb690613a28565b60405180910390fd5b610cdd33600e60059054906101000a900461ffff1661ffff16611d3a565b5050565b610ce9611d58565b80600e60006101000a81548160ff02191690831515021790555050565b600e60009054906101000a900460ff1681565b6000600880549050905090565b600f5481565b610d3d610d37611c79565b82611dd6565b610d7c576040517f08c379a0000000000000000000000000000000000000000000000000000000008152600401610d7390613aba565b60405180910390fd5b610d87838383611e6b565b505050565b6000610d9783610ffe565b8210610dd8576040517f08c379a0000000000000000000000000000000000000000000000000000000008152600401610dcf90613b4c565b60405180910390fd5b600660008473ffffffffffffffffffffffffffffffffffffffff1673ffffffffffffffffffffffffffffffffffffffff168152602001908152602001600020600083815260200190815260200160002054905092915050565b600e60019054906101000a900460ff1681565b610e4c6110de565b73ffffffffffffffffffffffffffffffffffffffff166108fc479081150290604051600060405180830381858888f19350505050158015610e91573d6000803e3d6000fd5b50565b600e60029054906101000a900460ff1681565b610ec283838360405180602001604052806000815250611688565b505050565b6000610ed1610d19565b8210610f12576040517f08c379a0000000000000000000000000000000000000000000000000000000008152600401610f0990613bde565b60405180910390fd5b60088281548110610f2657610f25613bfe565b5b90600052602060002001549050919050565b600e60039054906101000a900461ffff1681565b6000806002600084815260200190815260200160002060009054906101000a900473ffffffffffffffffffffffffffffffffffffffff169050600073ffffffffffffffffffffffffffffffffffffffff168173ffffffffffffffffffffffffffffffffffffffff161415610ff5576040517f08c379a0000000000000000000000000000000000000000000000000000000008152600401610fec90613c79565b60405180910390fd5b80915050919050565b60008073ffffffffffffffffffffffffffffffffffffffff168273ffffffffffffffffffffffffffffffffffffffff16141561106f576040517f08c379a000000000000000000000000000000000000000000000000000000000815260040161106690613d0b565b60405180910390fd5b600360008373ffffffffffffffffffffffffffffffffffffffff1673ffffffffffffffffffffffffffffffffffffffff168152602001908152602001600020549050919050565b600e60059054906101000a900461ffff1681565b6110d2611d58565b6110dc60006120d2565b565b6000600a60009054906101000a900473ffffffffffffffffffffffffffffffffffffffff16905090565b600e60009054906101000a900460ff1615611158576040517f08c379a000000000000000000000000000000000000000000000000000000000815260040161114f9061389e565b60405180910390fd5b601060003373ffffffffffffffffffffffffffffffffffffffff1673ffffffffffffffffffffffffffffffffffffffff16815260200190815260200160002060009054906101000a900460ff16156111e5576040517f08c379a00000000000000000000000000000000000000000000000000000000081526004016111dc90613d9d565b60405180910390fd5b600e60019054906101000a900460ff1660ff16600e60029054906101000a900460ff1660ff161061124b576040517f08c379a000000000000000000000000000000000000000000000000000000000815260040161124290613e2f565b60405180910390fd5b6001601060003373ffffffffffffffffffffffffffffffffffffffff1673ffffffffffffffffffffffffffffffffffffffff16815260200190815260200160002060006101000a81548160ff0219169083151502179055506012339080600181540180825580915050600190039060005260206000200160009091909190916101000a81548173ffffffffffffffffffffffffffffffffffffffff021916908373ffffffffffffffffffffffffffffffffffffffff1602179055506001600e60028282829054906101000a900460ff160192506101000a81548160ff021916908360ff160217905550565b606060018054611345906136fc565b80601f0160208091040260200160405190810160405280929190818152602001828054611371906136fc565b80156113be5780601f10611393576101008083540402835291602001916113be565b820191906000526020600020905b8154815290600101906020018083116113a157829003601f168201915b5050505050905090565b6113da6113d3611c79565b8383612198565b5050565b6113e6611d58565b600d600b9080546113f6906136fc565b611401929190612dd3565b50565b61140c611d58565b60005b81518160ff1610156116645760106000838360ff168151811061143557611434613bfe565b5b602002602001015173ffffffffffffffffffffffffffffffffffffffff1673ffffffffffffffffffffffffffffffffffffffff16815260200190815260200160002060009054906101000a900460ff16156114c5576040517f08c379a00000000000000000000000000000000000000000000000000000000081526004016114bc90613ec1565b60405180910390fd5b600e60019054906101000a900460ff1660ff16600e60029054906101000a900460ff1660ff161061152b576040517f08c379a000000000000000000000000000000000000000000000000000000000815260040161152290613e2f565b60405180910390fd5b600160106000848460ff168151811061154757611546613bfe565b5b602002602001015173ffffffffffffffffffffffffffffffffffffffff1673ffffffffffffffffffffffffffffffffffffffff16815260200190815260200160002060006101000a81548160ff0219169083151502179055506012828260ff16815181106115b8576115b7613bfe565b5b60200260200101519080600181540180825580915050600190039060005260206000200160009091909190916101000a81548173ffffffffffffffffffffffffffffffffffffffff021916908373ffffffffffffffffffffffffffffffffffffffff1602179055506001600e60028282829054906101000a900460ff1661163f9190613f10565b92506101000a81548160ff021916908360ff160217905550808060010191505061140f565b5050565b60116020528060005260406000206000915054906101000a900460ff1681565b611699611693611c79565b83611dd6565b6116d8576040517f08c379a00000000000000000000000000000000000000000000000000000000081526004016116cf90613aba565b60405180910390fd5b6116e484848484612305565b50505050565b60606116f582612361565b611734576040517f08c379a000000000000000000000000000000000000000000000000000000000815260040161172b90613fb9565b60405180910390fd5b600061173e6123cd565b90508061174a846123f5565b600c60405160200161175e939291906140a9565b604051602081830303815290604052915050919050565b606061177f611d58565b601280548060200260200160405190810160405280929190818152602001828054801561180157602002820191906000526020600020905b8160009054906101000a900473ffffffffffffffffffffffffffffffffffffffff1673ffffffffffffffffffffffffffffffffffffffff16815260200190600101908083116117b7575b5050505050905090565b60106020528060005260406000206000915054906101000a900460ff1681565b6000600560008473ffffffffffffffffffffffffffffffffffffffff1673ffffffffffffffffffffffffffffffffffffffff16815260200190815260200160002060008373ffffffffffffffffffffffffffffffffffffffff1673ffffffffffffffffffffffffffffffffffffffff16815260200190815260200160002060009054906101000a900460ff16905092915050565b6118c7611d58565b600073ffffffffffffffffffffffffffffffffffffffff168173ffffffffffffffffffffffffffffffffffffffff161415611937576040517f08c379a000000000000000000000000000000000000000000000000000000000815260040161192e9061414c565b60405180910390fd5b611940816120d2565b50565b600e60009054906101000a900460ff1615611993576040517f08c379a000000000000000000000000000000000000000000000000000000000815260040161198a9061389e565b60405180910390fd5b61199b611d58565b600e60039054906101000a900461ffff1661ffff16600e60059054906101000a900461ffff1661ffff1682516119d1919061416c565b10611a11576040517f08c379a0000000000000000000000000000000000000000000000000000000008152600401611a089061390a565b60405180910390fd5b60005b81518160ff161015611b48576001600e60058282829054906101000a900461ffff160192506101000a81548161ffff021916908361ffff160217905550611a8c828260ff1681518110611a6a57611a69613bfe565b5b6020026020010151600e60059054906101000a900461ffff1661ffff16611d3a565b600160116000848460ff1681518110611aa857611aa7613bfe565b5b602002602001015173ffffffffffffffffffffffffffffffffffffffff1673ffffffffffffffffffffffffffffffffffffffff16815260200190815260200160002060006101000a81548160ff0219169083151502179055506001600e60078282829054906101000a900461ffff16611b2191906141c2565b92506101000a81548161ffff021916908361ffff1602179055508080600101915050611a14565b5050565b60007f80ac58cd000000000000000000000000000000000000000000000000000000007bffffffffffffffffffffffffffffffffffffffffffffffffffffffff1916827bffffffffffffffffffffffffffffffffffffffffffffffffffffffff19161480611c1757507f5b5e139f000000000000000000000000000000000000000000000000000000007bffffffffffffffffffffffffffffffffffffffffffffffffffffffff1916827bffffffffffffffffffffffffffffffffffffffffffffffffffffffff1916145b80611c275750611c2682612556565b5b9050919050565b611c3781612361565b611c76576040517f08c379a0000000000000000000000000000000000000000000000000000000008152600401611c6d90613c79565b60405180910390fd5b50565b600033905090565b816004600083815260200190815260200160002060006101000a81548173ffffffffffffffffffffffffffffffffffffffff021916908373ffffffffffffffffffffffffffffffffffffffff160217905550808273ffffffffffffffffffffffffffffffffffffffff16611cf483610f4c565b73ffffffffffffffffffffffffffffffffffffffff167f8c5be1e5ebec7d5bd14f71427d1e84f3dd0314c0f7b2291e5b200ac8c7c3b92560405160405180910390a45050565b611d548282604051806020016040528060008152506125c0565b5050565b611d60611c79565b73ffffffffffffffffffffffffffffffffffffffff16611d7e6110de565b73ffffffffffffffffffffffffffffffffffffffff1614611dd4576040517f08c379a0000000000000000000000000000000000000000000000000000000008152600401611dcb90614246565b60405180910390fd5b565b600080611de283610f4c565b90508073ffffffffffffffffffffffffffffffffffffffff168473ffffffffffffffffffffffffffffffffffffffff161480611e245750611e23818561182b565b5b80611e6257508373ffffffffffffffffffffffffffffffffffffffff16611e4a84610979565b73ffffffffffffffffffffffffffffffffffffffff16145b91505092915050565b8273ffffffffffffffffffffffffffffffffffffffff16611e8b82610f4c565b73ffffffffffffffffffffffffffffffffffffffff1614611ee1576040517f08c379a0000000000000000000000000000000000000000000000000000000008152600401611ed8906142d8565b60405180910390fd5b600073ffffffffffffffffffffffffffffffffffffffff168273ffffffffffffffffffffffffffffffffffffffff161415611f51576040517f08c379a0000000000000000000000000000000000000000000000000000000008152600401611f489061436a565b60405180910390fd5b611f5c83838361261b565b611f67600082611c81565b6001600360008573ffffffffffffffffffffffffffffffffffffffff1673ffffffffffffffffffffffffffffffffffffffff1681526020019081526020016000206000828254611fb7919061438a565b925050819055506001600360008473ffffffffffffffffffffffffffffffffffffffff1673ffffffffffffffffffffffffffffffffffffffff168152602001908152602001600020600082825461200e919061416c565b92505081905550816002600083815260200190815260200160002060006101000a81548173ffffffffffffffffffffffffffffffffffffffff021916908373ffffffffffffffffffffffffffffffffffffffff160217905550808273ffffffffffffffffffffffffffffffffffffffff168473ffffffffffffffffffffffffffffffffffffffff167fddf252ad1be2c89b69c2b068fc378daa952ba7f163c4a11628f55a4df523b3ef60405160405180910390a46120cd83838361272f565b505050565b6000600a60009054906101000a900473ffffffffffffffffffffffffffffffffffffffff16905081600a60006101000a81548173ffffffffffffffffffffffffffffffffffffffff021916908373ffffffffffffffffffffffffffffffffffffffff1602179055508173ffffffffffffffffffffffffffffffffffffffff168173ffffffffffffffffffffffffffffffffffffffff167f8be0079c531659141344cd1fd0a4f28419497f9722a3daafe3b4186f6b6457e060405160405180910390a35050565b8173ffffffffffffffffffffffffffffffffffffffff168373ffffffffffffffffffffffffffffffffffffffff161415612207576040517f08c379a00000000000000000000000000000000000000000000000000000000081526004016121fe9061440a565b60405180910390fd5b80600560008573ffffffffffffffffffffffffffffffffffffffff1673ffffffffffffffffffffffffffffffffffffffff16815260200190815260200160002060008473ffffffffffffffffffffffffffffffffffffffff1673ffffffffffffffffffffffffffffffffffffffff16815260200190815260200160002060006101000a81548160ff0219169083151502179055508173ffffffffffffffffffffffffffffffffffffffff168373ffffffffffffffffffffffffffffffffffffffff167f17307eab39ab6107e8899845ad3d59bd9653f200f220920489ca2b5937696c31836040516122f89190612f31565b60405180910390a3505050565b612310848484611e6b565b61231c84848484612734565b61235b576040517f08c379a00000000000000000000000000000000000000000000000000000000081526004016123529061449c565b60405180910390fd5b50505050565b60008073ffffffffffffffffffffffffffffffffffffffff166002600084815260200190815260200160002060009054906101000a900473ffffffffffffffffffffffffffffffffffffffff1673ffffffffffffffffffffffffffffffffffffffff1614159050919050565b6060600b6040516020016123e19190614554565b604051602081830303815290604052905090565b6060600082141561243d576040518060400160405280600181526020017f30000000000000000000000000000000000000000000000000000000000000008152509050612551565b600082905060005b6000821461246f57808061245890614581565b915050600a8261246891906145f9565b9150612445565b60008167ffffffffffffffff81111561248b5761248a6132e9565b5b6040519080825280601f01601f1916602001820160405280156124bd5781602001600182028036833780820191505090505b5090505b6000851461254a576001826124d6919061438a565b9150600a856124e5919061462a565b60306124f1919061416c565b60f81b81838151811061250757612506613bfe565b5b60200101907effffffffffffffffffffffffffffffffffffffffffffffffffffffffffffff1916908160001a905350600a8561254391906145f9565b94506124c1565b8093505050505b919050565b60007f01ffc9a7000000000000000000000000000000000000000000000000000000007bffffffffffffffffffffffffffffffffffffffffffffffffffffffff1916827bffffffffffffffffffffffffffffffffffffffffffffffffffffffff1916149050919050565b6125ca83836128cb565b6125d76000848484612734565b612616576040517f08c379a000000000000000000000000000000000000000000000000000000000815260040161260d9061449c565b60405180910390fd5b505050565b612626838383612aa5565b600073ffffffffffffffffffffffffffffffffffffffff168373ffffffffffffffffffffffffffffffffffffffff1614156126695761266481612aaa565b6126a8565b8173ffffffffffffffffffffffffffffffffffffffff168373ffffffffffffffffffffffffffffffffffffffff16146126a7576126a68382612af3565b5b5b600073ffffffffffffffffffffffffffffffffffffffff168273ffffffffffffffffffffffffffffffffffffffff1614156126eb576126e681612c60565b61272a565b8273ffffffffffffffffffffffffffffffffffffffff168273ffffffffffffffffffffffffffffffffffffffff1614612729576127288282612d31565b5b5b505050565b505050565b60006127558473ffffffffffffffffffffffffffffffffffffffff16612db0565b156128be578373ffffffffffffffffffffffffffffffffffffffff1663150b7a0261277e611c79565b8786866040518563ffffffff1660e01b81526004016127a094939291906146b0565b602060405180830381600087803b1580156127ba57600080fd5b505af19250505080156127eb57506040513d601f19601f820116820180604052508101906127e89190614711565b60015b61286e573d806000811461281b576040519150601f19603f3d011682016040523d82523d6000602084013e612820565b606091505b50600081511415612866576040517f08c379a000000000000000000000000000000000000000000000000000000000815260040161285d9061449c565b60405180910390fd5b805181602001fd5b63150b7a0260e01b7bffffffffffffffffffffffffffffffffffffffffffffffffffffffff1916817bffffffffffffffffffffffffffffffffffffffffffffffffffffffff1916149150506128c3565b600190505b949350505050565b600073ffffffffffffffffffffffffffffffffffffffff168273ffffffffffffffffffffffffffffffffffffffff16141561293b576040517f08c379a00000000000000000000000000000000000000000000000000000000081526004016129329061478a565b60405180910390fd5b61294481612361565b15612984576040517f08c379a000000000000000000000000000000000000000000000000000000000815260040161297b906147f6565b60405180910390fd5b6129906000838361261b565b6001600360008473ffffffffffffffffffffffffffffffffffffffff1673ffffffffffffffffffffffffffffffffffffffff16815260200190815260200160002060008282546129e0919061416c565b92505081905550816002600083815260200190815260200160002060006101000a81548173ffffffffffffffffffffffffffffffffffffffff021916908373ffffffffffffffffffffffffffffffffffffffff160217905550808273ffffffffffffffffffffffffffffffffffffffff16600073ffffffffffffffffffffffffffffffffffffffff167fddf252ad1be2c89b69c2b068fc378daa952ba7f163c4a11628f55a4df523b3ef60405160405180910390a4612aa16000838361272f565b5050565b505050565b6008805490506009600083815260200190815260200160002081905550600881908060018154018082558091505060019003906000526020600020016000909190919091505550565b60006001612b0084610ffe565b612b0a919061438a565b9050600060076000848152602001908152602001600020549050818114612bef576000600660008673ffffffffffffffffffffffffffffffffffffffff1673ffffffffffffffffffffffffffffffffffffffff168152602001908152602001600020600084815260200190815260200160002054905080600660008773ffffffffffffffffffffffffffffffffffffffff1673ffffffffffffffffffffffffffffffffffffffff168152602001908152602001600020600084815260200190815260200160002081905550816007600083815260200190815260200160002081905550505b6007600084815260200190815260200160002060009055600660008573ffffffffffffffffffffffffffffffffffffffff1673ffffffffffffffffffffffffffffffffffffffff16815260200190815260200160002060008381526020019081526020016000206000905550505050565b60006001600880549050612c74919061438a565b9050600060096000848152602001908152602001600020549050600060088381548110612ca457612ca3613bfe565b5b906000526020600020015490508060088381548110612cc657612cc5613bfe565b5b906000526020600020018190555081600960008381526020019081526020016000208190555060096000858152602001908152602001600020600090556008805480612d1557612d14614816565b5b6001900381819060005260206000200160009055905550505050565b6000612d3c83610ffe565b905081600660008573ffffffffffffffffffffffffffffffffffffffff1673ffffffffffffffffffffffffffffffffffffffff168152602001908152602001600020600083815260200190815260200160002081905550806007600084815260200190815260200160002081905550505050565b6000808273ffffffffffffffffffffffffffffffffffffffff163b119050919050565b828054612ddf906136fc565b90600052602060002090601f016020900481019282612e015760008555612e4f565b82601f10612e125780548555612e4f565b82800160010185558215612e4f57600052602060002091601f016020900482015b82811115612e4e578254825591600101919060010190612e33565b5b509050612e5c9190612e60565b5090565b5b80821115612e79576000816000905550600101612e61565b5090565b6000604051905090565b600080fd5b600080fd5b60007fffffffff0000000000000000000000000000000000000000000000000000000082169050919050565b612ec681612e91565b8114612ed157600080fd5b50565b600081359050612ee381612ebd565b92915050565b600060208284031215612eff57612efe612e87565b5b6000612f0d84828501612ed4565b91505092915050565b60008115159050919050565b612f2b81612f16565b82525050565b6000602082019050612f466000830184612f22565b92915050565b600061ffff82169050919050565b612f6381612f4c565b82525050565b6000602082019050612f7e6000830184612f5a565b92915050565b600081519050919050565b600082825260208201905092915050565b60005b83811015612fbe578082015181840152602081019050612fa3565b83811115612fcd576000848401525b50505050565b6000601f19601f8301169050919050565b6000612fef82612f84565b612ff98185612f8f565b9350613009818560208601612fa0565b61301281612fd3565b840191505092915050565b600060208201905081810360008301526130378184612fe4565b905092915050565b6000819050919050565b6130528161303f565b811461305d57600080fd5b50565b60008135905061306f81613049565b92915050565b60006020828403121561308b5761308a612e87565b5b600061309984828501613060565b91505092915050565b600073ffffffffffffffffffffffffffffffffffffffff82169050919050565b60006130cd826130a2565b9050919050565b6130dd816130c2565b82525050565b60006020820190506130f860008301846130d4565b92915050565b613107816130c2565b811461311257600080fd5b50565b600081359050613124816130fe565b92915050565b6000806040838503121561314157613140612e87565b5b600061314f85828601613115565b925050602061316085828601613060565b9150509250929050565b61317381612f16565b811461317e57600080fd5b50565b6000813590506131908161316a565b92915050565b6000602082840312156131ac576131ab612e87565b5b60006131ba84828501613181565b91505092915050565b6131cc8161303f565b82525050565b60006020820190506131e760008301846131c3565b92915050565b60008060006060848603121561320657613205612e87565b5b600061321486828701613115565b935050602061322586828701613115565b925050604061323686828701613060565b9150509250925092565b600060ff82169050919050565b61325681613240565b82525050565b6000602082019050613271600083018461324d565b92915050565b60006020828403121561328d5761328c612e87565b5b600061329b84828501613115565b91505092915050565b600080604083850312156132bb576132ba612e87565b5b60006132c985828601613115565b92505060206132da85828601613181565b9150509250929050565b600080fd5b7f4e487b7100000000000000000000000000000000000000000000000000000000600052604160045260246000fd5b61332182612fd3565b810181811067ffffffffffffffff821117156133405761333f6132e9565b5b80604052505050565b6000613353612e7d565b905061335f8282613318565b919050565b600067ffffffffffffffff82111561337f5761337e6132e9565b5b602082029050602081019050919050565b600080fd5b60006133a86133a384613364565b613349565b905080838252602082019050602084028301858111156133cb576133ca613390565b5b835b818110156133f457806133e08882613115565b8452602084019350506020810190506133cd565b5050509392505050565b600082601f830112613413576134126132e4565b5b8135613423848260208601613395565b91505092915050565b60006020828403121561344257613441612e87565b5b600082013567ffffffffffffffff8111156134605761345f612e8c565b5b61346c848285016133fe565b91505092915050565b600080fd5b600067ffffffffffffffff821115613495576134946132e9565b5b61349e82612fd3565b9050602081019050919050565b82818337600083830152505050565b60006134cd6134c88461347a565b613349565b9050828152602081018484840111156134e9576134e8613475565b5b6134f48482856134ab565b509392505050565b600082601f830112613511576135106132e4565b5b81356135218482602086016134ba565b91505092915050565b6000806000806080858703121561354457613543612e87565b5b600061355287828801613115565b945050602061356387828801613115565b935050604061357487828801613060565b925050606085013567ffffffffffffffff81111561359557613594612e8c565b5b6135a1878288016134fc565b91505092959194509250565b600081519050919050565b600082825260208201905092915050565b6000819050602082019050919050565b6135e2816130c2565b82525050565b60006135f483836135d9565b60208301905092915050565b6000602082019050919050565b6000613618826135ad565b61362281856135b8565b935061362d836135c9565b8060005b8381101561365e57815161364588826135e8565b975061365083613600565b925050600181019050613631565b5085935050505092915050565b60006020820190508181036000830152613685818461360d565b905092915050565b600080604083850312156136a4576136a3612e87565b5b60006136b285828601613115565b92505060206136c385828601613115565b9150509250929050565b7f4e487b7100000000000000000000000000000000000000000000000000000000600052602260045260246000fd5b6000600282049050600182168061371457607f821691505b60208210811415613728576137276136cd565b5b50919050565b7f4552433732313a20617070726f76616c20746f2063757272656e74206f776e6560008201527f7200000000000000000000000000000000000000000000000000000000000000602082015250565b600061378a602183612f8f565b91506137958261372e565b604082019050919050565b600060208201905081810360008301526137b98161377d565b9050919050565b7f4552433732313a20617070726f76652063616c6c6572206973206e6f7420746f60008201527f6b656e206f776e6572206e6f7220617070726f76656420666f7220616c6c0000602082015250565b600061381c603e83612f8f565b9150613827826137c0565b604082019050919050565b6000602082019050818103600083015261384b8161380f565b9050919050565b7f436f6e74726163742063757272656e746c792070617573656400000000000000600082015250565b6000613888601983612f8f565b915061389382613852565b602082019050919050565b600060208201905081810360008301526138b78161387b565b9050919050565b7f457863656564206d6178696d756d20737570706c790000000000000000000000600082015250565b60006138f4601583612f8f565b91506138ff826138be565b602082019050919050565b60006020820190508181036000830152613923816138e7565b9050919050565b7f45746865722073656e74206973206e6f7420636f727265637400000000000000600082015250565b6000613960601983612f8f565b915061396b8261392a565b602082019050919050565b6000602082019050818103600083015261398f81613953565b9050919050565b600081905092915050565b50565b60006139b1600083613996565b91506139bc826139a1565b600082019050919050565b60006139d2826139a4565b9150819050919050565b7f4661696c656420746f2073656e64204574686572000000000000000000000000600082015250565b6000613a12601483612f8f565b9150613a1d826139dc565b602082019050919050565b60006020820190508181036000830152613a4181613a05565b9050919050565b7f4552433732313a2063616c6c6572206973206e6f7420746f6b656e206f776e6560008201527f72206e6f7220617070726f766564000000000000000000000000000000000000602082015250565b6000613aa4602e83612f8f565b9150613aaf82613a48565b604082019050919050565b60006020820190508181036000830152613ad381613a97565b9050919050565b7f455243373231456e756d657261626c653a206f776e657220696e646578206f7560008201527f74206f6620626f756e6473000000000000000000000000000000000000000000602082015250565b6000613b36602b83612f8f565b9150613b4182613ada565b604082019050919050565b60006020820190508181036000830152613b6581613b29565b9050919050565b7f455243373231456e756d657261626c653a20676c6f62616c20696e646578206f60008201527f7574206f6620626f756e64730000000000000000000000000000000000000000602082015250565b6000613bc8602c83612f8f565b9150613bd382613b6c565b604082019050919050565b60006020820190508181036000830152613bf781613bbb565b9050919050565b7f4e487b7100000000000000000000000000000000000000000000000000000000600052603260045260246000fd5b7f4552433732313a20696e76616c696420746f6b656e2049440000000000000000600082015250565b6000613c63601883612f8f565b9150613c6e82613c2d565b602082019050919050565b60006020820190508181036000830152613c9281613c56565b9050919050565b7f4552433732313a2061646472657373207a65726f206973206e6f74206120766160008201527f6c6964206f776e65720000000000000000000000000000000000000000000000602082015250565b6000613cf5602983612f8f565b9150613d0082613c99565b604082019050919050565b60006020820190508181036000830152613d2481613ce8565b9050919050565b7f53656e6465722068617320616c7265616479206265656e2077686974656c697360008201527f7465640000000000000000000000000000000000000000000000000000000000602082015250565b6000613d87602383612f8f565b9150613d9282613d2b565b604082019050919050565b60006020820190508181036000830152613db681613d7a565b9050919050565b7f4d6f7265206164647265737365732063616e742062652061646465642c206c6960008201527f6d69742072656163686564000000000000000000000000000000000000000000602082015250565b6000613e19602b83612f8f565b9150613e2482613dbd565b604082019050919050565b60006020820190508181036000830152613e4881613e0c565b9050919050565b7f416464726573732068617320616c7265616479206265656e2077686974656c6960008201527f7374656400000000000000000000000000000000000000000000000000000000602082015250565b6000613eab602483612f8f565b9150613eb682613e4f565b604082019050919050565b60006020820190508181036000830152613eda81613e9e565b9050919050565b7f4e487b7100000000000000000000000000000000000000000000000000000000600052601160045260246000fd5b6000613f1b82613240565b9150613f2683613240565b92508260ff03821115613f3c57613f3b613ee1565b5b828201905092915050565b7f4552433732314d657461646174613a2055524920717565727920666f72206e6f60008201527f6e6578697374656e7420746f6b656e0000000000000000000000000000000000602082015250565b6000613fa3602f83612f8f565b9150613fae82613f47565b604082019050919050565b60006020820190508181036000830152613fd281613f96565b9050919050565b600081905092915050565b6000613fef82612f84565b613ff98185613fd9565b9350614009818560208601612fa0565b80840191505092915050565b60008190508160005260206000209050919050565b60008154614037816136fc565b6140418186613fd9565b9450600182166000811461405c576001811461406d576140a0565b60ff198316865281860193506140a0565b61407685614015565b60005b8381101561409857815481890152600182019150602081019050614079565b838801955050505b50505092915050565b60006140b58286613fe4565b91506140c18285613fe4565b91506140cd828461402a565b9150819050949350505050565b7f4f776e61626c653a206e6577206f776e657220697320746865207a65726f206160008201527f6464726573730000000000000000000000000000000000000000000000000000602082015250565b6000614136602683612f8f565b9150614141826140da565b604082019050919050565b6000602082019050818103600083015261416581614129565b9050919050565b60006141778261303f565b91506141828361303f565b9250827fffffffffffffffffffffffffffffffffffffffffffffffffffffffffffffffff038211156141b7576141b6613ee1565b5b828201905092915050565b60006141cd82612f4c565b91506141d883612f4c565b92508261ffff038211156141ef576141ee613ee1565b5b828201905092915050565b7f4f776e61626c653a2063616c6c6572206973206e6f7420746865206f776e6572600082015250565b6000614230602083612f8f565b915061423b826141fa565b602082019050919050565b6000602082019050818103600083015261425f81614223565b9050919050565b7f4552433732313a207472616e736665722066726f6d20696e636f72726563742060008201527f6f776e6572000000000000000000000000000000000000000000000000000000602082015250565b60006142c2602583612f8f565b91506142cd82614266565b604082019050919050565b600060208201905081810360008301526142f1816142b5565b9050919050565b7f4552433732313a207472616e7366657220746f20746865207a65726f2061646460008201527f7265737300000000000000000000000000000000000000000000000000000000602082015250565b6000614354602483612f8f565b915061435f826142f8565b604082019050919050565b6000602082019050818103600083015261438381614347565b9050919050565b60006143958261303f565b91506143a08361303f565b9250828210156143b3576143b2613ee1565b5b828203905092915050565b7f4552433732313a20617070726f766520746f2063616c6c657200000000000000600082015250565b60006143f4601983612f8f565b91506143ff826143be565b602082019050919050565b60006020820190508181036000830152614423816143e7565b9050919050565b7f4552433732313a207472616e7366657220746f206e6f6e20455243373231526560008201527f63656976657220696d706c656d656e7465720000000000000000000000000000602082015250565b6000614486603283612f8f565b91506144918261442a565b604082019050919050565b600060208201905081810360008301526144b581614479565b9050919050565b7f697066733a2f2f00000000000000000000000000000000000000000000000000600082015250565b60006144f2600783613fd9565b91506144fd826144bc565b600782019050919050565b7f2f00000000000000000000000000000000000000000000000000000000000000600082015250565b600061453e600183613fd9565b915061454982614508565b600182019050919050565b600061455f826144e5565b915061456b828461402a565b915061457682614531565b915081905092915050565b600061458c8261303f565b91507fffffffffffffffffffffffffffffffffffffffffffffffffffffffffffffffff8214156145bf576145be613ee1565b5b600182019050919050565b7f4e487b7100000000000000000000000000000000000000000000000000000000600052601260045260246000fd5b60006146048261303f565b915061460f8361303f565b92508261461f5761461e6145ca565b5b828204905092915050565b60006146358261303f565b91506146408361303f565b9250826146505761464f6145ca565b5b828206905092915050565b600081519050919050565b600082825260208201905092915050565b60006146828261465b565b61468c8185614666565b935061469c818560208601612fa0565b6146a581612fd3565b840191505092915050565b60006080820190506146c560008301876130d4565b6146d260208301866130d4565b6146df60408301856131c3565b81810360608301526146f18184614677565b905095945050505050565b60008151905061470b81612ebd565b92915050565b60006020828403121561472757614726612e87565b5b6000614735848285016146fc565b91505092915050565b7f4552433732313a206d696e7420746f20746865207a65726f2061646472657373600082015250565b6000614774602083612f8f565b915061477f8261473e565b602082019050919050565b600060208201905081810360008301526147a381614767565b9050919050565b7f4552433732313a20746f6b656e20616c7265616479206d696e74656400000000600082015250565b60006147e0601c83612f8f565b91506147eb826147aa565b602082019050919050565b6000602082019050818103600083015261480f816147d3565b9050919050565b7f4e487b7100000000000000000000000000000000000000000000000000000000600052603160045260246000fdfea2646970667358221220183444e0664571cf2748ddf64f06112fd11488d026cb31bd0d2953c8052953ac64736f6c6343000809003362616679626569636f327a71657165623563617535616a3762376f75656b33323677363567336a626868616d736e6836333776626d357a3569337162616679626569676d3477356e74356e763377333778796c36336c64617a777970753779713567367074376f756c706c68657332726a3535377871",
  "linkReferences": {},
  "deployedLinkReferences": {}
}